{
  "contractName": "DistrictK",
  "abi": [
    {
      "inputs": [],
      "stateMutability": "payable",
      "type": "constructor",
      "payable": true
    },
    {
      "anonymous": false,
      "inputs": [
        {
          "indexed": true,
          "internalType": "address",
          "name": "owner",
          "type": "address"
        },
        {
          "indexed": true,
          "internalType": "address",
          "name": "approved",
          "type": "address"
        },
        {
          "indexed": true,
          "internalType": "uint256",
          "name": "tokenId",
          "type": "uint256"
        }
      ],
      "name": "Approval",
      "type": "event"
    },
    {
      "anonymous": false,
      "inputs": [
        {
          "indexed": true,
          "internalType": "address",
          "name": "owner",
          "type": "address"
        },
        {
          "indexed": true,
          "internalType": "address",
          "name": "operator",
          "type": "address"
        },
        {
          "indexed": false,
          "internalType": "bool",
          "name": "approved",
          "type": "bool"
        }
      ],
      "name": "ApprovalForAll",
      "type": "event"
    },
    {
      "anonymous": false,
      "inputs": [
        {
          "indexed": true,
          "internalType": "address",
          "name": "previousOwner",
          "type": "address"
        },
        {
          "indexed": true,
          "internalType": "address",
          "name": "newOwner",
          "type": "address"
        }
      ],
      "name": "OwnershipTransferred",
      "type": "event"
    },
    {
      "anonymous": false,
      "inputs": [
        {
          "indexed": true,
          "internalType": "address",
          "name": "from",
          "type": "address"
        },
        {
          "indexed": true,
          "internalType": "address",
          "name": "to",
          "type": "address"
        },
        {
          "indexed": true,
          "internalType": "uint256",
          "name": "tokenId",
          "type": "uint256"
        }
      ],
      "name": "Transfer",
      "type": "event"
    },
    {
      "inputs": [
        {
          "internalType": "address",
          "name": "to",
          "type": "address"
        },
        {
          "internalType": "uint256",
          "name": "tokenId",
          "type": "uint256"
        }
      ],
      "name": "approve",
      "outputs": [],
      "stateMutability": "nonpayable",
      "type": "function"
    },
    {
      "inputs": [
        {
          "internalType": "address",
          "name": "owner",
          "type": "address"
        }
      ],
      "name": "balanceOf",
      "outputs": [
        {
          "internalType": "uint256",
          "name": "",
          "type": "uint256"
        }
      ],
      "stateMutability": "view",
      "type": "function",
      "constant": true
    },
    {
      "inputs": [
        {
          "internalType": "uint256",
          "name": "",
          "type": "uint256"
        }
      ],
      "name": "fts",
      "outputs": [
        {
          "internalType": "string",
          "name": "name",
          "type": "string"
        },
        {
          "internalType": "uint256",
          "name": "id",
          "type": "uint256"
        },
        {
          "internalType": "uint8",
          "name": "rarity",
          "type": "uint8"
        }
      ],
      "stateMutability": "view",
      "type": "function",
      "constant": true
    },
    {
      "inputs": [
        {
          "internalType": "uint256",
          "name": "tokenId",
          "type": "uint256"
        }
      ],
      "name": "getApproved",
      "outputs": [
        {
          "internalType": "address",
          "name": "",
          "type": "address"
        }
      ],
      "stateMutability": "view",
      "type": "function",
      "constant": true
    },
    {
      "inputs": [
        {
          "internalType": "address",
          "name": "owner",
          "type": "address"
        },
        {
          "internalType": "address",
          "name": "operator",
          "type": "address"
        }
      ],
      "name": "isApprovedForAll",
      "outputs": [
        {
          "internalType": "bool",
          "name": "",
          "type": "bool"
        }
      ],
      "stateMutability": "view",
      "type": "function",
      "constant": true
    },
    {
      "inputs": [],
      "name": "maxSupply",
      "outputs": [
        {
          "internalType": "uint256",
          "name": "",
          "type": "uint256"
        }
      ],
      "stateMutability": "view",
      "type": "function",
      "constant": true
    },
    {
      "inputs": [],
      "name": "mintPrice",
      "outputs": [
        {
          "internalType": "uint256",
          "name": "",
          "type": "uint256"
        }
      ],
      "stateMutability": "view",
      "type": "function",
      "constant": true
    },
    {
      "inputs": [
        {
          "internalType": "address",
          "name": "",
          "type": "address"
        }
      ],
      "name": "mintedWallets",
      "outputs": [
        {
          "internalType": "uint256",
          "name": "",
          "type": "uint256"
        }
      ],
      "stateMutability": "view",
      "type": "function",
      "constant": true
    },
    {
      "inputs": [],
      "name": "name",
      "outputs": [
        {
          "internalType": "string",
          "name": "",
          "type": "string"
        }
      ],
      "stateMutability": "view",
      "type": "function",
      "constant": true
    },
    {
      "inputs": [],
      "name": "owner",
      "outputs": [
        {
          "internalType": "address",
          "name": "",
          "type": "address"
        }
      ],
      "stateMutability": "view",
      "type": "function",
      "constant": true
    },
    {
      "inputs": [
        {
          "internalType": "uint256",
          "name": "tokenId",
          "type": "uint256"
        }
      ],
      "name": "ownerOf",
      "outputs": [
        {
          "internalType": "address",
          "name": "",
          "type": "address"
        }
      ],
      "stateMutability": "view",
      "type": "function",
      "constant": true
    },
    {
      "inputs": [],
      "name": "renounceOwnership",
      "outputs": [],
      "stateMutability": "nonpayable",
      "type": "function"
    },
    {
      "inputs": [
        {
          "internalType": "address",
          "name": "from",
          "type": "address"
        },
        {
          "internalType": "address",
          "name": "to",
          "type": "address"
        },
        {
          "internalType": "uint256",
          "name": "tokenId",
          "type": "uint256"
        }
      ],
      "name": "safeTransferFrom",
      "outputs": [],
      "stateMutability": "nonpayable",
      "type": "function"
    },
    {
      "inputs": [
        {
          "internalType": "address",
          "name": "from",
          "type": "address"
        },
        {
          "internalType": "address",
          "name": "to",
          "type": "address"
        },
        {
          "internalType": "uint256",
          "name": "tokenId",
          "type": "uint256"
        },
        {
          "internalType": "bytes",
          "name": "_data",
          "type": "bytes"
        }
      ],
      "name": "safeTransferFrom",
      "outputs": [],
      "stateMutability": "nonpayable",
      "type": "function"
    },
    {
      "inputs": [
        {
          "internalType": "address",
          "name": "operator",
          "type": "address"
        },
        {
          "internalType": "bool",
          "name": "approved",
          "type": "bool"
        }
      ],
      "name": "setApprovalForAll",
      "outputs": [],
      "stateMutability": "nonpayable",
      "type": "function"
    },
    {
      "inputs": [
        {
          "internalType": "bytes4",
          "name": "interfaceId",
          "type": "bytes4"
        }
      ],
      "name": "supportsInterface",
      "outputs": [
        {
          "internalType": "bool",
          "name": "",
          "type": "bool"
        }
      ],
      "stateMutability": "view",
      "type": "function",
      "constant": true
    },
    {
      "inputs": [],
      "name": "symbol",
      "outputs": [
        {
          "internalType": "string",
          "name": "",
          "type": "string"
        }
      ],
      "stateMutability": "view",
      "type": "function",
      "constant": true
    },
    {
      "inputs": [
        {
          "internalType": "uint256",
          "name": "tokenId",
          "type": "uint256"
        }
      ],
      "name": "tokenURI",
      "outputs": [
        {
          "internalType": "string",
          "name": "",
          "type": "string"
        }
      ],
      "stateMutability": "view",
      "type": "function",
      "constant": true
    },
    {
      "inputs": [],
      "name": "totalSupply",
      "outputs": [
        {
          "internalType": "uint256",
          "name": "",
          "type": "uint256"
        }
      ],
      "stateMutability": "view",
      "type": "function",
      "constant": true
    },
    {
      "inputs": [
        {
          "internalType": "address",
          "name": "from",
          "type": "address"
        },
        {
          "internalType": "address",
          "name": "to",
          "type": "address"
        },
        {
          "internalType": "uint256",
          "name": "tokenId",
          "type": "uint256"
        }
      ],
      "name": "transferFrom",
      "outputs": [],
      "stateMutability": "nonpayable",
      "type": "function"
    },
    {
      "inputs": [
        {
          "internalType": "address",
          "name": "newOwner",
          "type": "address"
        }
      ],
      "name": "transferOwnership",
      "outputs": [],
      "stateMutability": "nonpayable",
      "type": "function"
    },
    {
      "inputs": [
        {
          "internalType": "uint256",
          "name": "maxSupply_",
          "type": "uint256"
        }
      ],
      "name": "setMaxSupply",
      "outputs": [],
      "stateMutability": "nonpayable",
      "type": "function"
    },
    {
      "inputs": [],
      "name": "mint",
      "outputs": [],
      "stateMutability": "payable",
      "type": "function",
      "payable": true
    }
  ],
  "bytecode": "0x66b1a2bc2ec500006007556000600855600960809081526844697374726963744b60b81b60a052610100604052600260c090815261444b60f01b60e052620000473362000080565b81516200005c906001906020850190620000d0565b50805162000072906002906020840190620000d0565b5050600260095550620001b3565b600080546001600160a01b038381166001600160a01b0319831681178455604051919092169283917f8be0079c531659141344cd1fd0a4f28419497f9722a3daafe3b4186f6b6457e09190a35050565b828054620000de9062000176565b90600052602060002090601f0160209004810192826200010257600085556200014d565b82601f106200011d57805160ff19168380011785556200014d565b828001600101855582156200014d579182015b828111156200014d57825182559160200191906001019062000130565b506200015b9291506200015f565b5090565b5b808211156200015b576000815560010162000160565b600181811c908216806200018b57607f821691505b60208210811415620001ad57634e487b7160e01b600052602260045260246000fd5b50919050565b6118c480620001c36000396000f3fe6080604052600436106101405760003560e01c806370a08231116100b6578063b88d4fde1161006f578063b88d4fde1461036d578063c87b56dd1461038d578063d5abeb01146103ad578063e985e9c5146103c3578063f2fde38b1461040c578063fca64f561461042c57600080fd5b806370a08231146102b8578063715018a6146102d85780638da5cb5b146102ed57806395d89b411461030b578063a22cb46514610320578063ada7c4ed1461034057600080fd5b806318160ddd1161010857806318160ddd146101fe57806323b872dd1461022257806342842e0e146102425780636352211e146102625780636817c76c146102825780636f8b44b01461029857600080fd5b806301ffc9a71461014557806306fdde031461017a578063081812fc1461019c578063095ea7b3146101d45780631249c58b146101f6575b600080fd5b34801561015157600080fd5b5061016561016036600461155e565b61045b565b60405190151581526020015b60405180910390f35b34801561018657600080fd5b5061018f6104ad565b6040516101719190611646565b3480156101a857600080fd5b506101bc6101b7366004611596565b61053f565b6040516001600160a01b039091168152602001610171565b3480156101e057600080fd5b506101f46101ef366004611535565b6105d9565b005b6101f46106ef565b34801561020a57600080fd5b5061021460085481565b604051908152602001610171565b34801561022e57600080fd5b506101f461023d3660046113eb565b610734565b34801561024e57600080fd5b506101f461025d3660046113eb565b610765565b34801561026e57600080fd5b506101bc61027d366004611596565b610780565b34801561028e57600080fd5b5061021460075481565b3480156102a457600080fd5b506101f46102b3366004611596565b6107f7565b3480156102c457600080fd5b506102146102d336600461139f565b610821565b3480156102e457600080fd5b506101f46108a8565b3480156102f957600080fd5b506000546001600160a01b03166101bc565b34801561031757600080fd5b5061018f6108de565b34801561032c57600080fd5b506101f461033b3660046114fb565b6108ed565b34801561034c57600080fd5b5061021461035b36600461139f565b600a6020526000908152604090205481565b34801561037957600080fd5b506101f4610388366004611426565b6108fc565b34801561039957600080fd5b5061018f6103a8366004611596565b610934565b3480156103b957600080fd5b5061021460095481565b3480156103cf57600080fd5b506101656103de3660046113b9565b6001600160a01b03918216600090815260066020908152604080832093909416825291909152205460ff1690565b34801561041857600080fd5b506101f461042736600461139f565b610a1c565b34801561043857600080fd5b5061044c610447366004611596565b610ab4565b60405161017193929190611659565b60006001600160e01b031982166380ac58cd60e01b148061048c57506001600160e01b03198216635b5e139f60e01b145b806104a757506301ffc9a760e01b6001600160e01b03198316145b92915050565b6060600180546104bc906117cc565b80601f01602080910402602001604051908101604052809291908181526020018280546104e8906117cc565b80156105355780601f1061050a57610100808354040283529160200191610535565b820191906000526020600020905b81548152906001019060200180831161051857829003601f168201915b5050505050905090565b6000818152600360205260408120546001600160a01b03166105bd5760405162461bcd60e51b815260206004820152602c60248201527f4552433732313a20617070726f76656420717565727920666f72206e6f6e657860448201526b34b9ba32b73a103a37b5b2b760a11b60648201526084015b60405180910390fd5b506000908152600560205260409020546001600160a01b031690565b60006105e482610780565b9050806001600160a01b0316836001600160a01b031614156106525760405162461bcd60e51b815260206004820152602160248201527f4552433732313a20617070726f76616c20746f2063757272656e74206f776e656044820152603960f91b60648201526084016105b4565b336001600160a01b038216148061066e575061066e81336103de565b6106e05760405162461bcd60e51b815260206004820152603860248201527f4552433732313a20617070726f76652063616c6c6572206973206e6f74206f7760448201527f6e6572206e6f7220617070726f76656420666f7220616c6c000000000000000060648201526084016105b4565b6106ea8383610b7a565b505050565b336000908152600a6020526040812080549161070a83611807565b90915550506008805490600061071f83611807565b90915550506008546107313382610be8565b50565b61073e3382610c02565b61075a5760405162461bcd60e51b81526004016105b49061170c565b6106ea838383610cf9565b6106ea838383604051806020016040528060008152506108fc565b6000818152600360205260408120546001600160a01b0316806104a75760405162461bcd60e51b815260206004820152602960248201527f4552433732313a206f776e657220717565727920666f72206e6f6e657869737460448201526832b73a103a37b5b2b760b91b60648201526084016105b4565b6000546001600160a01b031633146107315760405162461bcd60e51b81526004016105b4906116d7565b60006001600160a01b03821661088c5760405162461bcd60e51b815260206004820152602a60248201527f4552433732313a2062616c616e636520717565727920666f7220746865207a65604482015269726f206164647265737360b01b60648201526084016105b4565b506001600160a01b031660009081526004602052604090205490565b6000546001600160a01b031633146108d25760405162461bcd60e51b81526004016105b4906116d7565b6108dc6000610e95565b565b6060600280546104bc906117cc565b6108f8338383610ee5565b5050565b6109063383610c02565b6109225760405162461bcd60e51b81526004016105b49061170c565b61092e84848484610fb4565b50505050565b6000818152600360205260409020546060906001600160a01b03166109b35760405162461bcd60e51b815260206004820152602f60248201527f4552433732314d657461646174613a2055524920717565727920666f72206e6f60448201526e3732bc34b9ba32b73a103a37b5b2b760891b60648201526084016105b4565b60006109ca60408051602081019091526000815290565b905060008151116109ea5760405180602001604052806000815250610a15565b806109f484610fe7565b604051602001610a059291906115da565b6040516020818303038152906040525b9392505050565b6000546001600160a01b03163314610a465760405162461bcd60e51b81526004016105b4906116d7565b6001600160a01b038116610aab5760405162461bcd60e51b815260206004820152602660248201527f4f776e61626c653a206e6577206f776e657220697320746865207a65726f206160448201526564647265737360d01b60648201526084016105b4565b61073181610e95565b600b8181548110610ac457600080fd5b9060005260206000209060030201600091509050806000018054610ae7906117cc565b80601f0160208091040260200160405190810160405280929190818152602001828054610b13906117cc565b8015610b605780601f10610b3557610100808354040283529160200191610b60565b820191906000526020600020905b815481529060010190602001808311610b4357829003601f168201915b50505050600183015460029093015491929160ff16905083565b600081815260056020526040902080546001600160a01b0319166001600160a01b0384169081179091558190610baf82610780565b6001600160a01b03167f8c5be1e5ebec7d5bd14f71427d1e84f3dd0314c0f7b2291e5b200ac8c7c3b92560405160405180910390a45050565b6108f8828260405180602001604052806000815250611101565b6000818152600360205260408120546001600160a01b0316610c7b5760405162461bcd60e51b815260206004820152602c60248201527f4552433732313a206f70657261746f7220717565727920666f72206e6f6e657860448201526b34b9ba32b73a103a37b5b2b760a11b60648201526084016105b4565b6000610c8683610780565b9050806001600160a01b0316846001600160a01b03161480610ccd57506001600160a01b0380821660009081526006602090815260408083209388168352929052205460ff165b80610cf15750836001600160a01b0316610ce68461053f565b6001600160a01b0316145b949350505050565b826001600160a01b0316610d0c82610780565b6001600160a01b031614610d705760405162461bcd60e51b815260206004820152602560248201527f4552433732313a207472616e736665722066726f6d20696e636f72726563742060448201526437bbb732b960d91b60648201526084016105b4565b6001600160a01b038216610dd25760405162461bcd60e51b8152602060048201526024808201527f4552433732313a207472616e7366657220746f20746865207a65726f206164646044820152637265737360e01b60648201526084016105b4565b610ddd600082610b7a565b6001600160a01b0383166000908152600460205260408120805460019290610e06908490611789565b90915550506001600160a01b0382166000908152600460205260408120805460019290610e3490849061175d565b909155505060008181526003602052604080822080546001600160a01b0319166001600160a01b0386811691821790925591518493918716917fddf252ad1be2c89b69c2b068fc378daa952ba7f163c4a11628f55a4df523b3ef91a4505050565b600080546001600160a01b038381166001600160a01b0319831681178455604051919092169283917f8be0079c531659141344cd1fd0a4f28419497f9722a3daafe3b4186f6b6457e09190a35050565b816001600160a01b0316836001600160a01b03161415610f475760405162461bcd60e51b815260206004820152601960248201527f4552433732313a20617070726f766520746f2063616c6c65720000000000000060448201526064016105b4565b6001600160a01b03838116600081815260066020908152604080832094871680845294825291829020805460ff191686151590811790915591519182527f17307eab39ab6107e8899845ad3d59bd9653f200f220920489ca2b5937696c31910160405180910390a3505050565b610fbf848484610cf9565b610fcb84848484611134565b61092e5760405162461bcd60e51b81526004016105b490611685565b60608161100b5750506040805180820190915260018152600360fc1b602082015290565b8160005b8115611035578061101f81611807565b915061102e9050600a83611775565b915061100f565b60008167ffffffffffffffff81111561105e57634e487b7160e01b600052604160045260246000fd5b6040519080825280601f01601f191660200182016040528015611088576020820181803683370190505b5090505b8415610cf15761109d600183611789565b91506110aa600a86611822565b6110b590603061175d565b60f81b8183815181106110d857634e487b7160e01b600052603260045260246000fd5b60200101906001600160f81b031916908160001a9053506110fa600a86611775565b945061108c565b61110b8383611241565b6111186000848484611134565b6106ea5760405162461bcd60e51b81526004016105b490611685565b60006001600160a01b0384163b1561123657604051630a85bd0160e11b81526001600160a01b0385169063150b7a0290611178903390899088908890600401611609565b602060405180830381600087803b15801561119257600080fd5b505af19250505080156111c2575060408051601f3d908101601f191682019092526111bf9181019061157a565b60015b61121c573d8080156111f0576040519150601f19603f3d011682016040523d82523d6000602084013e6111f5565b606091505b5080516112145760405162461bcd60e51b81526004016105b490611685565b805181602001fd5b6001600160e01b031916630a85bd0160e11b149050610cf1565b506001949350505050565b6001600160a01b0382166112975760405162461bcd60e51b815260206004820181905260248201527f4552433732313a206d696e7420746f20746865207a65726f206164647265737360448201526064016105b4565b6000818152600360205260409020546001600160a01b0316156112fc5760405162461bcd60e51b815260206004820152601c60248201527f4552433732313a20746f6b656e20616c7265616479206d696e7465640000000060448201526064016105b4565b6001600160a01b038216600090815260046020526040812080546001929061132590849061175d565b909155505060008181526003602052604080822080546001600160a01b0319166001600160a01b03861690811790915590518392907fddf252ad1be2c89b69c2b068fc378daa952ba7f163c4a11628f55a4df523b3ef908290a45050565b80356001600160a01b038116811461139a57600080fd5b919050565b6000602082840312156113b0578081fd5b610a1582611383565b600080604083850312156113cb578081fd5b6113d483611383565b91506113e260208401611383565b90509250929050565b6000806000606084860312156113ff578081fd5b61140884611383565b925061141660208501611383565b9150604084013590509250925092565b6000806000806080858703121561143b578081fd5b61144485611383565b935061145260208601611383565b925060408501359150606085013567ffffffffffffffff80821115611475578283fd5b818701915087601f830112611488578283fd5b81358181111561149a5761149a611862565b604051601f8201601f19908116603f011681019083821181831017156114c2576114c2611862565b816040528281528a60208487010111156114da578586fd5b82602086016020830137918201602001949094529598949750929550505050565b6000806040838503121561150d578182fd5b61151683611383565b91506020830135801515811461152a578182fd5b809150509250929050565b60008060408385031215611547578182fd5b61155083611383565b946020939093013593505050565b60006020828403121561156f578081fd5b8135610a1581611878565b60006020828403121561158b578081fd5b8151610a1581611878565b6000602082840312156115a7578081fd5b5035919050565b600081518084526115c68160208601602086016117a0565b601f01601f19169290920160200192915050565b600083516115ec8184602088016117a0565b8351908301906116008183602088016117a0565b01949350505050565b6001600160a01b038581168252841660208201526040810183905260806060820181905260009061163c908301846115ae565b9695505050505050565b602081526000610a1560208301846115ae565b60608152600061166c60608301866115ae565b905083602083015260ff83166040830152949350505050565b60208082526032908201527f4552433732313a207472616e7366657220746f206e6f6e20455243373231526560408201527131b2b4bb32b91034b6b83632b6b2b73a32b960711b606082015260800190565b6020808252818101527f4f776e61626c653a2063616c6c6572206973206e6f7420746865206f776e6572604082015260600190565b60208082526031908201527f4552433732313a207472616e736665722063616c6c6572206973206e6f74206f6040820152701ddb995c881b9bdc88185c1c1c9bdd9959607a1b606082015260800190565b6000821982111561177057611770611836565b500190565b6000826117845761178461184c565b500490565b60008282101561179b5761179b611836565b500390565b60005b838110156117bb5781810151838201526020016117a3565b8381111561092e5750506000910152565b600181811c908216806117e057607f821691505b6020821081141561180157634e487b7160e01b600052602260045260246000fd5b50919050565b600060001982141561181b5761181b611836565b5060010190565b6000826118315761183161184c565b500690565b634e487b7160e01b600052601160045260246000fd5b634e487b7160e01b600052601260045260246000fd5b634e487b7160e01b600052604160045260246000fd5b6001600160e01b03198116811461073157600080fdfea264697066735822122098b2365448e38dba9b7a6b8e8885fb2ce0f4681b06887a5071fa1e22cece135764736f6c63430008040033",
  "immutableReferences": {},
  "source": "// SPDX-License-Identifier: MIT\n\npragma solidity ^0.8.0;\n\nimport \"@openzeppelin/contracts/access/Ownable.sol\";\nimport \"@openzeppelin/contracts/token/ERC721/ERC721.sol\";\nimport \"@openzeppelin/contracts/utils/Strings.sol\";\n\n\ncontract DistrictK is Ownable, ERC721{\n  uint256 public mintPrice = 0.05 ether;\n  uint256 public totalSupply = 0;\n  uint256 public maxSupply;\n  mapping(address=>uint256) public mintedWallets;\n\n  struct FT{\n    string name;\n    uint256 id;\n    uint8 rarity;\n  }\n\n  FT[] public fts;\n\n  constructor() payable ERC721('DistrictK', 'DK'){\n      maxSupply = 2;\n  }\n\n  function _createft(string memory _name, uint256 id) internal{\n    FT memory newFt = FT(_name,totalSupply,0);\n    fts.push(newFt);\n    totalSupply++;\n    _safeMint(msg.sender, totalSupply);\n  }\n\n  function setMaxSupply (uint256 maxSupply_) external onlyOwner {\n    maxSupply = maxSupply;\n  }\n\n  function mint() external payable{\n    // require(mintedWallets[msg.sender]<2,\"exceeds max per wallet\");\n    // require(msg.value == mintPrice, \"wrong value\");\n    // require(maxSupply > totalSupply, \"sold out\");\n\n    mintedWallets[msg.sender]++;\n    totalSupply++;\n    uint256 tokenId = totalSupply;\n    _safeMint(msg.sender, tokenId);\n  }\n  \n}",
  "sourcePath": "/Users/saehoonbyun/Documents/my_seoul/contracts/DistrictK.sol",
  "compiler": {
    "name": "solc",
    "version": "0.8.4+commit.c7e474f2.Emscripten.clang"
  },
  "schemaVersion": "3.4.7",
  "updatedAt": "2022-06-07T14:54:52.291Z",
  "networkType": "ethereum",
  "devdoc": {
    "kind": "dev",
    "methods": {
      "approve(address,uint256)": {
        "details": "See {IERC721-approve}."
      },
      "balanceOf(address)": {
        "details": "See {IERC721-balanceOf}."
      },
      "getApproved(uint256)": {
        "details": "See {IERC721-getApproved}."
      },
      "isApprovedForAll(address,address)": {
        "details": "See {IERC721-isApprovedForAll}."
      },
      "name()": {
        "details": "See {IERC721Metadata-name}."
      },
      "owner()": {
        "details": "Returns the address of the current owner."
      },
      "ownerOf(uint256)": {
        "details": "See {IERC721-ownerOf}."
      },
      "renounceOwnership()": {
        "details": "Leaves the contract without owner. It will not be possible to call `onlyOwner` functions anymore. Can only be called by the current owner. NOTE: Renouncing ownership will leave the contract without an owner, thereby removing any functionality that is only available to the owner."
      },
      "safeTransferFrom(address,address,uint256)": {
        "details": "See {IERC721-safeTransferFrom}."
      },
      "safeTransferFrom(address,address,uint256,bytes)": {
        "details": "See {IERC721-safeTransferFrom}."
      },
      "setApprovalForAll(address,bool)": {
        "details": "See {IERC721-setApprovalForAll}."
      },
      "supportsInterface(bytes4)": {
        "details": "See {IERC165-supportsInterface}."
      },
      "symbol()": {
        "details": "See {IERC721Metadata-symbol}."
      },
      "tokenURI(uint256)": {
        "details": "See {IERC721Metadata-tokenURI}."
      },
      "transferFrom(address,address,uint256)": {
        "details": "See {IERC721-transferFrom}."
      },
      "transferOwnership(address)": {
        "details": "Transfers ownership of the contract to a new account (`newOwner`). Can only be called by the current owner."
      }
    },
    "version": 1
  },
  "userdoc": {
    "kind": "user",
    "methods": {},
    "version": 1
  }
}